:020000040800F2
:100000000050002021020008270200082B020008EF
:100010009D020008A1020008E9020008000000009B
:100020000000000000000000000000003103000894
:100030003503000800000000390300080909000822
:100040004D0300084D0300084D0300084D03000850
:100050004D0300084D030008F5090008150A0008C3
:10006000350A0008550A0008750A0008B10800089A
:100070004D0300084D0300084D0300084D03000820
:100080004D0300084D0300084D0300084D03000810
:100090004D0300084D0300084D030008950A0008B1
:1000A0004D0300084D0300084D0300084D030008F0
:1000B0004D0300084D0300084D0300084D030008E0
:1000C0004D0300084D0300084D0300084D030008D0
:1000D0004D030008990800084D0300084D0300086F
:1000E0002D0B00084D0300084D0300080000000020
:1000F0000000000000000000000000000000000000
:1001000000000000000000005FF808F100B583B0B7
:1001100000F0AAF9304B314A1360314A1360314B79
:10012000314A32498B4204D21168196004330432D7
:10013000F7E72A4B1A682E4B9A4200D0FEE7284B6D
:100140001A682C4B9A42F9D1234B2B4A13602B4A45
:1001500013602B4B02E000221A600433294A9342B9
:10016000F9D3254B1B6813B9244B1B6803B1FEE779
:1001700000F086F9694601A800F022F9224C234BD1
:10018000E41AA4100025AC4214DC214C214BE41AE3
:10019000A4100025AC4213DC0099019800F07EFF0A
:1001A00005461D4C1D4BE41AA410002C0EDC2846FD
:1001B00000F0E2F8154B53F8253098470135E2E797
:1001C000144B53F8253098470135E3E7013C134BB6
:1001D00053F824309847E8E7BABADECA0000002096
:1001E0008800002000000020C81D00088C000020AE
:1001F00078563412325476988C0000201403002074
:100200008C00002018030020780300087803000801
:1002100078030008780300087803000878030008D2
:1002200008B5FFF773FF00BEFEE71EF0040F0CBF1A
:10023000EFF30880EFF309807146414A10472DE93A
:10024000F04182B004468846124B5E6B9F6B9D6AFC
:100250001B6B13F0020F03D00E4BDB6A002B0CDB81
:100260000D4800F0B5F8CDF800803B4632462946EF
:10027000204600F009F900BEFEE74BF6AB6100F046
:100280007DF90028ECD0034B4FF00042DA6202B057
:10029000BDE8F08100ED00E0141C000800BEFEE7A0
:1002A0001EF0040F0CBFEFF30880EFF309807146D6
:1002B000244A10472DE9F04182B004468846084B95
:1002C0005E6B9F6B9D6A074800F082F8CDF8008056
:1002D0003B4632462946204600F0D6F800BEFEE7EF
:1002E00000ED00E0241C00081EF0040F0CBFEFF32B
:1002F0000880EFF309807146134A10472DE9F04159
:1003000082B004468846084B5E6B9F6B9D6A074827
:1003100000F05EF8CDF800803B4632462946204684
:1003200000F0B2F800BEFEE700ED00E0301C00086F
:1003300000BEFEE700BEFEE700BEFEE7704700001D
:100340003F020008B5020008FD02000800BEFEE7FB
:10035000C81D0008000000208C000020C81D0008F7
:1003600000000000000000008C00002018030020A6
:08037000000000000000000085
:10037800FEE7000008B503460C4A12685AB10B4A5A
:100388001068033323F003030344094A934206D851
:10039800064A136008BD054A06491160EFE700F0F8
:1003A80077FF0C2303604FF0FF30F3E79000002045
:1003B800004C00201803002001230360014B0B6050
:1003C800704700BF040000200FB400B583B004AB31
:1003D80053F8042B01938021064800F08BFF002876
:1003E80003DD0146034800F037F803B05DF804EB7D
:1003F80004B07047980000202DE9F04385B004460A
:100408000F4643560BB10E461EE0042528462146EA
:10041800ABBE0446384605B0BDE8F08314F9011BAD
:1004280004AA1A4402F8101C0133AB42F6D304AAFA
:100438001344002203F8102C4FF00408E946404604
:100448004946ABBE8046761B002EE3D03546102EBB
:1004580028BF10250023E8E708B5FFF7CDFF08BD42
:1004680008B500F0FDF8024A024B9A6008BD00BFCB
:100478000000000800ED00E008B500F019F908BD1B
:10048800F8B504460D4617461E462748FFF79CFF59
:1004980021682648FFF798FF61682548FFF794FF11
:1004A800A1682448FFF790FFE1682348FFF78CFF15
:1004B80021692248FFF788FF61692148FFF784FF17
:1004C800A1692048FFF780FFE1691F48FFF77CFF1B
:1004D8001E48FFF779FF29461D48FFF775FF1D4C99
:1004E800E16A1D48FFF770FF216B1C48FFF76CFF9E
:1004F800E16B1B48FFF768FF15F0800F0AD115F470
:10050800004F0CD11748FFF75FFF06991648FFF711
:100518005BFFF8BD39461548FFF756FFEFE7314650
:100528001348FFF751FFEDE7F81A0008081B000809
:10053800181B0008281B0008381B0008481B000867
:10054800581B0008681B0008781B0008881B000857
:10055800941B000800ED00E0A41B0008B41B000871
:10056800C41B0008F41B0008FC1B0008D41B00086F
:10057800E41B000883691A888A4201D0002070476A
:100588000268033A012A03D80233836101207047C5
:100598000020704782B00023019300932C4A13680F
:1005A80043F4803313602A4B1B6803F40033009331
:1005B800019B01330193009B1BB9019BB3F5A06F0D
:1005C800F1D1234B1B6813F4003F06D0012300939D
:1005D800009B012B04D002B0704700230093F7E77B
:1005E8001C4B1A6842F010021A601A6822F00302C3
:1005F8001A601A6842F002021A60A3F580535A681A
:100608005A605A685A605A6842F480625A605A6856
:1006180022F47C125A605A6842F4E8125A601A6846
:1006280042F080721A600A4B1B6813F0007FFAD000
:10063800074B5A6822F003025A605A6842F00202D5
:100648005A60034B5B6803F00C03082BF9D1C2E72F
:10065800001002400020024008B5FFF79BFF08BDCC
:1006680008B5104B1A6842F001021A6059680E4A20
:100678000A405A601A6822F0847222F480321A60A2
:100688001A6822F480221A605A6822F4FE025A601C
:100698004FF41F029A60FFF7DFFF044B4FF0006230
:1006A8009A6008BD001002400000FFF800ED00E06D
:1006B8001F4B5B6803F00C03042B15D0082B17D0D5
:1006C8001BB11C4B1C4A1A6002E01A4B1A4A1A60EA
:1006D800174B5B68C3F30313184AD35CDAB21549A6
:1006E8000B68D3400B607047124B134A1A60EFE750
:1006F8000F4A53685268C3F38343023312F4803FAE
:100708000AD00B4A526812F4003F0BD00C4A02FB85
:1007180003F3084A1360DBE7094A02FB03F3054ABF
:100728001360D5E7044A02FB03F3024A1360CFE7DC
:10073800001002401C00002000127A000C0000206B
:1007480000093D00054B1B6913F0800F05D0034BD2
:10075800034A5A6002F188325A607047002002400A
:100768002301674570B504460E461546124BDB68F3
:1007780013F0010FFAD1FFF7E5FF002218E00E4948
:100788000B6943F001030B6136F8123024F8023B81
:10079800094BDB6813F0010FFAD1074BD96841F018
:1007A8002001D960196921F0010119610132D2B221
:1007B800AA42E4D370BD00BF0020024010B5044631
:1007C800114BDB6813F0010FFAD1FFF7BBFF0E4B9B
:1007D8001A6942F002021A61A40204F100645C6121
:1007E8001A6942F040021A61074BDB6813F0010FE7
:1007F800FAD1054BDA6842F02002DA601A6922F071
:1008080002021A6110BD00BF0020024010B5082482
:1008180004E02046FFF7D2FF0134E4B23F2CF8D9B8
:1008280010BD00000A4B45229A60DA6842F02002A7
:10083800DA60DA6842F00802DA60DA6842F0040244
:10084800DA60DA6842F40052DA6000221A6070470F
:1008580000380140014B5868C0B270470038014069
:10086800002208E006494B60054B1B6813F0400F57
:10087800FAD00132D2B28356002BF3D1704700BFB1
:1008880000380140014B1860704700BF1801002074
:1008980008B5034B1B689847024B00221A6008BD35
:1008A800180100200038014008B5024B1B6803B14D
:1008B800984708BD1C010020044B1A6822F0020268
:1008C8001A601A6822F004021A60704710E000E00B
:1008D8000A4B00229A6058601A6842F001021A60B6
:1008E800064B1B6813F4803FFAD0044B00229A6031
:1008F8005A601A6822F001021A60704710E000E09E
:1009080008B5084B1B6803B19847074B1B7823B9F8
:10091800064A136823F001031360044B00229A600F
:1009280008BD00BF240100202001002010E000E0E5
:10093800044B1A6842F001021A604FF0FF325A6104
:10094800704700BF0004014003490B68012202FA06
:1009580000F003430B6070470004014003490B6932
:10096800012202FA00F003430B61704700040140C2
:100978000F2838D8DFE800F0080B0E1114171A1DDD
:10098800202326292C2F3235174B19607047164B18
:1009980059607047144B99607047134BD960704782
:1009A800114B19617047104B596170470E4B996193
:1009B80070470D4BD96170470B4B196270470A4B52
:1009C80059627047084B99627047074BD962704764
:1009D800054B19637047044B59637047024B996381
:1009E8007047014BD96370472801002008B5054BB3
:1009F8001B6803B19847044A536943F001035361E4
:100A080008BD00BF280100200004014008B5054BBF
:100A18005B6803B19847044A536943F00203536182
:100A280008BD00BF280100200004014008B5054B9F
:100A38009B6803B19847044A536943F00403536120
:100A480008BD00BF280100200004014008B5054B7F
:100A5800DB6803B19847044A536943F008035361BC
:100A680008BD00BF280100200004014008B5054B5F
:100A78001B6903B19847044A536943F01003536153
:100A880008BD00BF280100200004014008B5234B21
:100A98005B6913F0200F08D0214B5B6903B19847BD
:100AA8001E4A536943F0200353611C4B5B6913F0E2
:100AB800400F08D01A4B9B6903B19847174A5369EE
:100AC80043F040035361154B5B6913F0800F08D066
:100AD800134BDB6903B19847104A536943F080030D
:100AE80053610E4B5B6913F4807F08D00C4B1B6A73
:100AF80003B19847094A536943F480735361074B1C
:100B08005B6913F4007F08D0054B5B6A03B1984713
:100B1800024A536943F40073536108BD000401405D
:100B28002801002008B52A4B5B6913F4806F08D0B0
:100B3800284B9B6A03B19847254A536943F480635D
:100B48005361234B5B6913F4006F08D0214BDB6AB8
:100B580003B198471E4A536943F4006353611C4B21
:100B68005B6913F4805F08D01A4B1B6B03B198477D
:100B7800174A536943F480535361154B5B6913F467
:100B8800005F08D0134B5B6B03B19847104A536959
:100B980043F4005353610E4B5B6913F4804F08D044
:100BA8000C4B9B6B03B19847094A536943F4804344
:100BB8005361074B5B6913F4004F08D0054BDB6B9F
:100BC80003B19847024A536943F40043536108BD8F
:100BD800000401402801002000F01F024009012301
:100BE8009340024A42F82030704700BF00E100E01D
:100BF80030B4012825D018B1022843D030BC704742
:100C080007290DD8274C256889000F20884025EA38
:100C1800000542EA830303FA01F129432160EDE765
:100C2800A1F10804E4B21F484568A4000F21A140BF
:100C380025EA010542EA830303FA04F42C434460DD
:100C4800DCE707290DD8184C256889000F20884053
:100C580025EA000542EA830303FA01F129432160EA
:100C6800CCE7A1F10800C0B20F4C656880000F21E5
:100C7800814025EA010542EA830303FA00F028438C
:100C88006060BBE70C29B9D9084D686889000F2452
:100C98008C4020EA040042EA830303FA01F101438D
:100CA8006960ABE700080140000C014000100140FA
:100CB8000022074B1B68C34013F0010F06D1013215
:100CC8004CF250339A42F4D100207047012070470B
:100CD80000100240012813D010B1022820D070471C
:100CE80011B1012906D07047154A136843F0010372
:100CF80013607047124A136823F0010313607047AA
:100D080011B1012906D070470D4A136843F48033A6
:100D1800136070470A4A136823F4803313607047DE
:100D280011B1012906D07047054A136843F0807352
:100D380013607047024A136823F08073136070478A
:100D480000100240012809D010B102280ED07047C7
:100D58000A4A536823F0030353607047074A5368ED
:100D680023F0030343F0010353607047034A5368B9
:100D780023F0030343F0020353607047001002405E
:100D880008B500210846FFF7A5FF0120FFF790FFEF
:100D980000B908BD0020FFF7D5FF01210846FFF77D
:100DA80099FF01210220FFF795FFF2E7012816D0ED
:100DB80010B1022826D0704742B1012A34D11B480D
:100DC800436902FA01F119434161704717484369C1
:100DD800012202FA01F123EA01014161704742B19F
:100DE800012A21D11148C36902FA01F11943C161ED
:100DF80070470E48C369012202FA01F123EA010192
:100E0800C161704742B1012A0ED10848836902FACC
:100E180001F119438161704704488369012202FA8C
:100E280001F123EA01018161704700BF001002400F
:100E38000E4B1B78BBB9002301E00133DBB20C4A2F
:100E48001278D2B29A42F3D90A4AD25CD2B24F2A65
:100E5800F3D15A1C07498A5CD2B24B2AEDD1034A16
:100E680001211170E9E7014B18787047D001002083
:100E7800680100206C010020002304E0064A0021DC
:100E8800D1540133DBB2632BF8D90023034A137022
:100E9800034A1370704700BF6C01002068010020EE
:100EA800D001002038B5064C2578EDB2FFF7D2FC0A
:100EB800044B585523780133DBB2237038BD00BF8B
:100EC800680100206C01002008B51148FFF7DAFC22
:100ED8001048FFF7C5FC04E0FFF7CEFF0D48FFF709
:100EE800BFFCFFF7A5FF0028F6D0FFF7C5FF0A48AB
:100EF800FFF7B6FC04E0FFF7BFFF0748FFF7B0FCB9
:100F0800FFF796FF0028F6D0FFF7B6FF08BD00BF31
:100F1800AD0E0008B41C0008BC1C000808B5FFF79B
:100F2800ABFF1448FFF79CFC1348FFF799FC1348E4
:100F3800FFF796FC1248FFF793FC1248FFF790FC66
:100F480010E0FFF799FF0B48FFF78AFC0A48FFF704
:100F580087FC0A48FFF784FC0948FFF781FC094829
:100F6800FFF77EFCFFF764FF0028EAD0FFF784FF55
:100F780008BD00BF841C0008901C0008641C000801
:100F8800A01C0008B01C000808B5FFF775FF0A4848
:100F9800FFF766FC0948FFF763FC0948FFF760FCA8
:100FA8000848FFF75DFC0848FFF75AFCFFF764FFA5
:100FB8000648FFF78DFC08BD541C0008681C000893
:100FC800781C00087C1C0008801C000840420F00A8
:100FD80038B505460C46FFF74FFF0E48FFF740FCB3
:100FE8002046FFF73DFC0C4C2046FFF739FC0B4828
:100FF800FFF76EFCFFF740FF0948FFF731FC284672
:10100800FFF72EFC2046FFF72BFC0648FFF760FC95
:1010180038BD00BF401C0008801C0008400D0300BC
:101028004C1C0008801A060030B4002301E001338C
:10103800DBB20E4AD25CD2B23A2AF8D10433DDB21E
:101048002B4605E04A1B094C615C81540133DBB235
:101058001946064AD25CD2B20D2A05D05A1C034C56
:10106800A25CD2B20A2AEDD130BC70476C010020D4
:1010780008B5044B044A1A60044B1B68044A136001
:10108800984708BD08ED00E000200008042000088B
:10109800D401002010B5FFF773FE01220221084693
:1010A800FFF784FE01220E210220FFF77FFE252094
:1010B800FFF792FD0620FFF78FFDFFF739FC0020B0
:1010C800FFF742FC21490020FFF752FC02231A4691
:1010D80009210020FFF78CFD012300220A21104678
:1010E800FFF786FDFFF7E8FBFFF79CFBFFF7ECFE39
:1010F800FFF714FFFFF748FF15491648FFF768FF89
:10110800154C2046FFF790FF2378312B03D00020A1
:10111800FFF724FC10BDFFF779FB12E0FFF734FF5F
:101128000E490F48FFF754FFFFF72EFF0D490E48F1
:10113800FFF74EFF084C2046FFF776FF204600F0E9
:101148007DF8054B1B7A012BE8D1E3E779100008FD
:10115800CC1C0008D01C0008D8010020F81C00088E
:10116800FC1C0008301D0008341D00080246A0F1D0
:101178003003D8B2092802D9A2F13700C0B27047AB
:101188002DE9F04706464078FFF7F0FF00015FFAC7
:1011980080F8B078FFF7EAFF80445FFA88F8254DB9
:1011A8006C8824042C60F078FFF7E0FF44EA0037ED
:1011B8003079FFF7DBFF47EA00277079FFF7D6FFA2
:1011C80047EA0017B079FFF7D1FF07432F600025E2
:1011D80026E04FEA850909F10903F05CFFF7C6FF2D
:1011E8004FEA001A09F10A03F05CFFF7BFFF04B2E7
:1011F80044EA0A0424B209F10B03F05CFFF7B6FFD6
:1012080044EA003424B209F10C0916F80900FFF782
:10121800ADFF44EA0020084B23F815000135EDB274
:101228004FEA5802AA42D4D803493846FFF79AFA37
:10123800BDE8F087200000203C02002008B5037AB2
:10124800312B15D0342B17D0302B00D008BD0C4BC8
:101258001B78012B09D00B48FFF73AFBFFF794FEE8
:1012680009490A48FFF7B4FEF0E7FFF789FFEDE701
:101278000020FFF773FBE9E7014B01221A70E5E74D
:101288000403002080841E00581D00085C1D00080F
:10129800014B1868704700BF2400002030B5141EA9
:1012A80005469BB0184605DA8B234FF0FF302B60BC
:1012B8001BB030BD4FF40273ADF80C300CBF2346A1
:1012C80004F1FF33029305934FF6FF7300910491E5
:1012D800ADF80E3002461E9B6946284600F072F8AB
:1012E800431CBCBF8B232B60002CE1D00022009B49
:1012F8001A70DDE707B5009313460A46014603480E
:101308000068FFF7CBFF03B05DF804FB2400002062
:101318002DE9F0478E6882469E420C4690469946D3
:1013280037D88A8912F4906F31D002232568096969
:101338006F1A656905EB450595FBF3F509F101039E
:101348003B449D4238BF1D46530530D5294600F021
:1013580035FB064650B90C234FF0FF30CAF8003071
:10136800A38943F04003A381BDE8F0873A46216989
:1013780000F0B4FAA38923F4906343F08003A381B7
:1013880026613E4426604E466561ED1BA5604E45CC
:1013980000D94E4632464146206800F0AAFAA368B2
:1013A80000209B1BA36023681E442660DCE72A46B6
:1013B80000F05EFB06460028E2D12169504600F0A5
:1013C800B1FAC8E72DE9F04F9DB003938B898046A9
:1013D8001D060C4616460FD50B696BB9402100F067
:1013E800EDFA2060206128B90C23C8F800304FF0CE
:1013F800FF30C7E0402363610023099320238DF861
:10140800293030234FF0010B8DF82A3037463D46FE
:1014180015F8013B0BB1252B3ED1B7EB060A0BD0D3
:101428005346324621464046FFF772FF013000F02E
:10143800A480099B534409933B78002B00F09D80BE
:1014480000234FF0FF32CDE90523049307938DF86D
:1014580053301A932F46052217F8011B4F4800F006
:101468002FFA049BD0B9D90644BF20228DF8532007
:101478001A0744BF2B228DF853202A782A2A15D020
:101488002F4600200A25079A394611F8013B303BC0
:10149800092B4DD9B8B10FE02F46B8E73F4A3D4672
:1014A800801A0BFA00F018430490D3E7039A111D31
:1014B80012680391002A01DB079204E0524243F0CC
:1014C8000203079204933B782E2B0CD17B782A2BAE
:1014D80033D1039B02371A1D1B680392002BB8BF38
:1014E8004FF0FF3305932E4D03223978284600F03C
:1014F800E7F938B14023401B03FA00F0049B013799
:10150800034304933978062226487E1C8DF8281058
:1015180000F0D6F9002838D0234B13BB039B0733C0
:1015280023F0070308330393099B4B4409936DE7A2
:1015380005FB023201200F46A6E700230A251946BB
:1015480001370593384610F8012B303A092A03D998
:10155800002BC8D00591C6E705FB012101230746EA
:10156800F0E703AB00932246104B04A94046AFF3C3
:101578000080B0F1FF3F8146D6D1A3895B063FF5D5
:1015880036AF09981DB0BDE8F08F03AB0093224633
:10159800064B04A9404600F081F8EAE7941D0008CC
:1015A8009A1D00089E1D000800000000191300087D
:1015B8002DE9F04791461F468A680B690646934213
:1015C800B8BF1346C9F8003091F843200C46DDF83F
:1015D800208012B10133C9F800302368990642BF50
:1015E800D9F800300233C9F80030256815F006052F
:1015F80007D104F1190AE368D9F800209B1AAB4215
:1016080029DC94F843302268003318BF012392067E
:101618002ED404F1430239463046C047013021D068
:101628002368E56803F00603042B18BF0025D9F8E2
:1016380000204FF0000908BFAD1AA368226908BF4F
:1016480025EAE5759342C4BF9B1AED181A344D4537
:101658001AD1002008E00123524639463046C047D7
:10166800013003D14FF0FF30BDE8F0870135C2E704
:101678003020E11881F843005A1C94F845102244A0
:10168800023382F84310C4E7012322463946304624
:10169800C0470130E6D009F10109D8E72DE9F04348
:1016A80001F1430C0C46097E85B06E2917460646A3
:1016B80098460C9A00F0B38022D8632936D00AD80D
:1016C800002900F0B980582900F0838004F1420510
:1016D80084F8421032E0642901D06929F6D12068E3
:1016E8001368050603F104012AD51B681160002B55
:1016F80003DA2D225B4284F843206F480A2239E03E
:10170800732900F09D8008D86F2920D07029DDD179
:10171800236843F02003236003E0752917D0782954
:10172800D4D17823654884F8453055E0136804F12E
:101738004205191D1B68116084F8423001238CE0B2
:101748001B6810F0400F116018BF1BB2CFE7136879
:101758002568181D1060280601D51B6802E0680678
:10176800FBD51B886F2914BF0A2208225248002182
:1017780084F843106568002DA560C0F29580216843
:1017880021F004012160002B3DD1002D40F08E8016
:101798006546082A0BD12368DB0708D523696268E8
:1017A8009A42DEBF302305F8013C05F1FF35ACEB6A
:1017B80005032361CDF800803B4603AA2146304645
:1017C800FFF7F6FE01304DD14FF0FF3005B0BDE810
:1017D800F083394884F84510136821681D1D1B687B
:1017E80015600A060BD5CA0744BF41F020012160E5
:1017F8001BB9226822F0200222601022B7E74D06AA
:1018080048BF9BB2EFE76546B3FBF2F102FB113329
:10181800C35C05F8013D0B460029F5D1B9E713680B
:101828002568181D6169106028061B6801D51960B4
:1018380002E06A06FBD51980002365462361B9E7F3
:101848001368191D11601D6862680021284600F0A0
:1018580037F808B1401B606063682361002384F88F
:101868004330A7E723692A4639463046C047013046
:10187800AAD023689B0713D4E068039B9842B8BF9B
:101888001846A3E701234A4639463046C047013087
:101898009AD00135E368039A9B1AAB42F2DCEBE776
:1018A800002504F11909F5E7002BACD1037804F100
:1018B800420584F842306CE7A51D0008B61D0008F3
:1018C80010B5C9B202449042034601D1002303E097
:1018D8001C7801308C42F6D1184610BD10B5431E55
:1018E8000A44914200D110BD11F8014B03F8014F91
:1018F800F7E7884210B501EB020307D8421E994268
:101908000AD011F8014B02F8014FF8E78342F5D9E4
:101918008118D21AD34200D110BD13F8014D01F835
:10192800014DF7E738B50546002943D051F8043C86
:101938000C1F002BB8BFE41800F0D0F81E4A13683B
:10194800104633B9636014602846BDE8384000F09B
:10195800C6B8A3420BD921686218934201BF1A681E
:101968005B685218226063600460EDE713465A68AA
:101978000AB1A242FAD919685818A0420BD12068B6
:101988000144581882421960DED110685268014437
:1019980019605A60D8E702D90C232B60D4E7206875
:1019A80021188A4201BF11685268091821606260D3
:1019B8005C60C9E738BD00BF0803002070B5CD1CC6
:1019C80025F0030508350C2D38BF0C25002D0646DB
:1019D80001DBA94203D90C233360002070BD00F05D
:1019E8007DF8214A1468214691B9204C23681BB917
:1019F800304600F063F820602946304600F05EF873
:101A0800431C24D10C233046336000F068F8E4E727
:101A18000B685B1B18D40B2B0FD90B60CC18CD505F
:101A2800304600F05CF804F10B00231D20F007009D
:101A3800C31AD3D05A42E250D0E74B688C4216BF43
:101A4800636013600C46EBE70C464968CCE7C41C9E
:101A580024F00304A04205D0211A304600F02EF8E5
:101A68000130CFD02560DBE7080300200C030020FD
:101A7800F8B5074614460E4621B9BDE8F8401146A8
:101A8800FFF79CBF22B9FFF74DFF25462846F8BD52
:101A980000F026F8A0420FD221463846FFF78EFF05
:101AA80005460028F2D031462246FFF717FF314697
:101AB8003846FFF737FFE9E73546E7E738B500234B
:101AC800054C054608462360FEF754FC431C02D12A
:101AD800236803B12B6038BD10030020704770479E
:101AE80051F8043C181F002BBCBF0B58C018704796
:101AF800537461636B206672616D653A0A00000079
:101B0800205230203D2020253038580A000000009F
:101B1800205231203D2020253038580A000000008E
:101B2800205232203D2020253038580A000000007D
:101B3800205233203D2020253038580A000000006C
:101B480020523132203D20253038580A000000004C
:101B5800204C52203D2020253038580A0000000033
:101B6800205043203D2020253038580A000000002E
:101B780020505352203D20253038580A00000000DC
:101B88004653522F4641523A0A000000204346531A
:101B980052203D2020253038580A0000204846535E
:101BA80052203D2020253038580A00002044465352
:101BB80052203D2020253038580A00002041465345
:101BC80052203D2020253038580A0000204D4D462F
:101BD8004152203D20253038580A00002042464115
:101BE80052203D2020253038580A00004D69736383
:101BF8000A000000204C522F4558435F5245545567
:101C0800524E3D20253038580A0000005B4861726A
:101C1800644661756C745D0A000000005B42757370
:101C28004661756C745D0A005B5573616765466152
:101C3800756C745D0A00000041542B4349505345AC
:101C48004E443D00474554200000000041542B43BA
:101C5800495053544152543D22544350222C22009F
:101C68003136322E3235332E3135352E323236007A
:101C7800222C0000383000000D0A000041542B438C
:101C8800574A41503D22000041686D65642D414C22
:101C9800536962616900000061686D6564303430C1
:101CA8003131393936000000220D0A0041540D0A3D
:101CB8000000000041542B43574D4F44453D310D22
:101CC8000A00000034330000687474703A2F2F69DA
:101CD80074692D6E632E667265657661722E636F08
:101CE8006D2F757067726164652E747874000000DA
:101CF80035340000687474703A2F2F6974692D6E3A
:101D0800632E667265657661722E636F6D2F5265FC
:101D1800636976652E7068703F726573706F6E7355
:101D2800653D4F4B0000000034300000687474704B
:101D38003A2F2F6974692D6E632E66726565766118
:101D4800722E636F6D2F636F64652E747874000054
:101D580035380000687474703A2F2F6974692D6ED5
:101D6800632E667265657661722E636F6D2F52659C
:101D7800636976652E7068703F726573706F6E73F5
:101D8800653D52656C6F616400000000232D302BA7
:101D98002000686C4C006566674546470030313264
:101DA80033343536373839414243444546003031BB
:0F1DB8003233343536373839616263646566001B
:101DC8007856341294000020000000000000000043
:101DD80000000000010203040607080900A24A04E3
:101DE800000000082800002000000000000000009B
:101DF80000000000000000000000000000000000DB
:101E080000000000000000000000000000000000CA
:101E180000000000000000000000000000000000BA
:101E280000000000000000000000000000000000AA
:101E3800000000000000000000000000000000009A
:0C1E4800000000000000000032547698FA
:040000050800010DE1
:00000001FF
